:400000000080002011000000254200002542000008B5044B1A6803F53F5302331A6004F021F900BFFA46004010B5054C237833B9044B13B10448AFF300800123237010BD8B
:400040004881FF1F00000000184F0000084B10B51BB108490848AFF300800848036803B910BD074B002BFBD0BDE81040184700BF000000004C81FF1F184F0000C880FF1F34
:40008000000000000378022B40F085804378012B40F0818070B5ADF58B6D0446C378042B63D18378032B60D8DFE803F0020A3139002004F0C3F90121374802F01BF854E069
:4000C000364A0021344802F0BBF80122344989A803F0D2F8002848D1324D2B8801332B8013223149684603F0F3F80399684603F0B9FB2E4E2A882E49304604F0E9FA694691
:40010000304603F087FC684603F09CFB2DE0012004F094F90121204801F0DCFF25E0254A00211D4802F08CF804F094F9B0FA80F0400904F083F90122194989A803F09CF895
:4001400098B9184A13880133138013221649684603F0BEF80399684603F084FB6946164803F058FC684603F06DFBE378052B0FD1A378012B04D1114A0021074802F060F8CA
:40018000A378032B04D10D4A0021034802F058F80DF58B6D70BD7047F882FF1F384F00001C500000FC83FF1F4C4F00004883FF1F544F00007C4F00008C4F0000A84F000052
:4001C0002DE9F041ADF5906DD54C04AB20686168A26807C3227B1A7062B64FF47843ADF878344FF4FC63ADF87A341F23ADF87C340024CC4B1C8004F0A5F800F02BFA02F09B
:40020000A7F804F0CBF9012004F0D6F9204604F009F9322004F0EAF90122C34991A803F02BF860B90122C14908A803F051F808AA142104A803F0C6FB08A803F003FB002046
:4002400000F0EAFC4DF29A63009340F2DF1340F21F320021084600F07BFD0A2004F0C6F9012004F059F8B24D284600F08FFC002000F09CFD4FF6E07000F090FDAD4C4FF439
:40028000F0734FF44872AC49204604F021FA22460521084600F050FF284600F077FC002000F084FD4FF6E07000F078FDA34A1721052000F041FFA24800F068FC002000F035
:4002C00075FD4FF6FF7000F069FD04AA5A214FF4C87000F031FF9B4C9B4B0A229B49204601F0DCF99A49204601F0E0FA2946204601F0EEFA40F21311204601F00DFBC82155
:40030000204601F027FB40F2D521204601F042FB4FF4E171204601F05DFB3C2302936E2601960A2500952B4600228A49204601F085FE8223029301964FF05008CDF8008074
:400340002B4601228449204601F078FEC82702970196962300932B4602228049204601F06DFECC2302934FF4B773019364230093AA2303227A49204601F060FE794E32467C
:400380000021204601F0F4FE1F220021204601F0CBFE754A0021204601F0D8FE32460121204601F0E5FE4FF478420121204601F0BBFE6E4A0121204601F0C8FE32460221AF
:4003C000204601F0D5FE00220221204601F0ACFE674A0221204601F0B9FECDF808804FF4DC7301930095782300226249204601F0D1FE614A0021204601F034FF5F4A0021F5
:40040000204601F01DFF00221146204601F006FF12220021204601F037FF204601F094F901F0B6FDE089218A01F1E00300F5B8727A31AD30524C00941BB212B209B200B24A
:4004400000F020FB44F64C5301934E4B00934FF49773D6223946142000F0DEFA4FF4784300939C237C223121032000F071FCBDF8785400959B237B223221042000F094FBF1
:400480004FF4FC6300939C23F72231217E2000F05FFCBDF87A6400969B23F62232217F2000F082FB1F2300939C234FF4B9723121F92000F04DFCBDF87C4400949B2340F2F7
:4004C00071123221FA2000F06FFB01F061FDC82004F08CF8ADF87C64ADF87A54ADF8784403F098FF002867D1902001F0DFFE264C2080902001F0DAFE2080D02001F0D6FE62
:40050000D02001F0D3FE214B18802149214801F027FF002845D001221D4BB3F900103BE01C4F0000FC83FF1F1C500000C84F00001C5100004883FF1FD44F0000E84F000041
:40054000F4500000F882FF1F85000000B481FF1F005000009C81FF1F7083FF1F0084FF1F2C83FF1F30510000205000002C500000385000008481FF1F08510000A84F000054
:4005800044500000843D01009881FF1F4683FF1FF482FF1F4483FF1F254BB3F9000001F075F8244800F0F2FA002000F0FFFB4FF4784000F0F3FB0FE000224FF0FF310846DB
:4005C00001F064F81B4800F0E1FA002000F0EEFB4FF4FC6000F0E2FB174C154B1B88174A12881749204604F073F8224605214FF4AF7000F0A1FD134B1B88134A12881349C3
:40060000204604F065F8224617214FF4AF7000F093FD01F011FF02460D49204604F058F822460D214FF4167000F086FD16E700BF4483FF1F1C5100004883FF1F4683FF1F88
:4006400050500000F482FF1F9881FF1F605000007050000010B5642003F0C8FF00240CE0002003F0A1FE0A2003F0C0FF012003F09BFE0A2003F0BAFF0134042CF0DD012127
:40068000002003F06BFE0A2003F0B0FF052003F0ADFF0121002003F061FE0A2003F0A6FF052003F0A3FF0121002003F057FE0A2003F09CFF052003F099FFE221002003F016
:4006C0004DFE2321012003F049FE0221012003F045FE0421012003F041FEE021002003F03DFE0121084603F039FE0A2003F07EFFE021002003F032FE0321012003F02EFEF3
:400700000A2003F073FF0121002003F027FE0A2003F06CFFE621002003F020FE0421012003F01CFE6F21012003F018FE4621012003F014FEB021002003F010FE272101201B
:4007400003F00CFE0021012003F008FE0321012003F004FE1F21012003F000FE0121084603F0FCFDDF21012003F0F8FD0021012003F0F4FDB421002003F0F0FD0321012010
:4007800003F0ECFDA021012003F0E8FD0021012003F0E4FD2E21012003F0E0FD3021012003F0DCFD0021012003F0D8FD0F21012003F0D4FD0021012003F0D0FDB6210020F7
:4007C00003F0CCFD0221012003F0C8FD0D21012003F0C4FD0021012003F0C0FD1021012003F0BCFD1021012003F0B8FD0021012003F0B4FD1921012003F0B0FD36210020FC
:4008000003F0ACFD0021012003F0A8FDF021002003F0A4FD0321012003F0A0FD052003F0E5FE2921002003F099FD0A2003F0DEFE4FF4F0734FF448720849094800F06CF927
:400840000849012000F014FF0749002000F010FF0649032000F00CFF10BD00BFD10800008883FF1F09090000AD090000190A000030B583B015461C46030AADF80030C0B285
:40088000ADF802000B0AADF80430C9B2ADF806102A21002003F062FD04226946012003F06BFD2B0AADF80030EDB2ADF80250230AADF80430E4B2ADF806402B21002003F0D9
:4008C0004DFD04226946012003F056FD03B030BD80B2B0F5487F16D2002914DBB1F5F07F11DA10B514468AB2531C411C9BB289B2FFF7BEFF2C21002003F030FD21460120BD
:4009000003F02CFD10BD70472DE9F843BDF8206087B2B7F5487F30D2002932DBB1F5F07F33DA90B2B0F5487F33D2002B35DBB3F5F07F36DA1D4691461FFA81F89BB24246D5
:4009400001463846FFF794FF2C21002003F006FD0CE03146012003F001FD0134A4B200E04446691C8C42F4DB0137BFB209F101039F42F5DB0020BDE8F8834FF0FF30BDE88F
:40098000F8834FF0FF30BDE8F8834FF0FF30BDE8F8834FF0FF30BDE8F8834FF0FF30BDE8F8834FF0FF30BDE8F88300BF10B582B084B2B4F5487F18D2002919DBB1F5F07F7E
:4009C00019DA94B2B4F5487F18D2002B19DBB3F5F07F19DA904201D0994218D1BDF810400094FFF791FF002013E04FF0FF3010E04FF0FF300DE04FF0FF300AE04FF0FF3023
:400A000007E04FF0FF3004E04FF0FF3001E04FF0FF3002B010BD00BF80B2B0F5487F1FD2002920DBB1F5F07F20DA10B594B2B4F5487F1ED2002B1FDBB3F5F07F1FDA9BB2D3
:400A40008AB22146FFF714FF2C21002003F086FCBDF80C200299012003F08EFC002010BD4FF0FF3070474FF0FF3070474FF0FF3070474FF0FF3010BD4FF0FF3010BD4FF0BD
:400A8000FF3010BDF0B5ADF2644D85B2B5F5487F3CD200293ADBB1F5F07F37DA96B2B6F5487F33D2002B31DBB3F5F07F2EDA1F460C46012217498BA802F0DEFB30BB0122D0
:400AC000DDF8781402A802F003FCF8B9BBB2A2B231462846FFF7CCFE2C21002003F03EFC6B46022201A902A802F0A6FC9DF805109DF8043003EB012189B2012003F02EFC90
:400B0000009B002BECD102A802F09CFE0DF2644DF0BD00BF1C50000001608280C380042101844184053A12B28284053B1BB2C3848283C383012380F8403080F8413000239F
:400B4000C36283864386C3860387C36345F65D42A0F846204FF6FF72A0F84220A0F8443003614361836108E003F1090200EBC2020021516011720133DBB2032BF4D9024B11
:400B800018600120704700BF6481FF1F30B4054B1C682C3405460FCD0FC42B68236030BC704700BF6481FF1F2DE9F04383B081460D4616469846BDF82870824201DA914603
:400BC0000646A84502DA2B4645469846114B1B6893F8582012F0020F17D05C6D00974346324629464846A04778B910E0094B1B681B683A46294620469847013424B200E04B
:400C00004C46A642F2DA01352DB2A845F8DA03B0BDE8F0836481FF1F00B583B0084B1B68B3F90420B3F90630013B013A00901BB212B200210846FFF7B7FF03B05DF804FBA2
:400C40006481FF1F2DE9F04F87B006460F4615461C46BDF8403003933C4B1B6893F8502012F0020F08D0D3F84C80039B009323462A46C047002865D0AA1B12B2E31B1BB283
:400C800082EAE27AAAEBE27A0FFA8AF883EAE37BABEBE37B0FFA8BF9002A02DD0122049202E04FF0FF320492002B02DD0123059302E04FF0FF3305934FEA69054FEA6804FD
:400CC000224B1B681B68039A394630469847C8451ADA0024DDF8148032E05C44A3B21CB2A04505DCCAEB030424B2059B1F443FB24E4436B2154B1B681B68039A39463046EF
:400D0000984701352DB202E00025DDF810904545E3DB17E05544ABB21DB2A94505DCCBEB03052DB2049B1E4436B247443FB2074B1B681B68039A394630469847013424B29A
:400D40004C45E7DB07B0BDE8F08F00BF6481FF1F2DE9F04182B080460F4616461C46BDF8205000950B46FFF76DFF00952346324621464046FFF766FF009523464246394601
:400D80004046FFF75FFF00952346324639463046FFF758FF02B0BDE8F08100BF024B1B68A3F84200704700BF6481FF1F024B1B68A3F84400704700BF6481FF1F024B1B68FC
:400DC000B3F90400704700BF6481FF1F024B1B68B3F90600704700BF6481FF1F2DE9F04F87B00446049111460193BDF840300293119FA0F1B0034C2B37D8DFE803F0333622
:400E00003636363136363636363636363636363636362F36363636363636363636363636363636362736363636362B363636363636362D3636363636363636363636363661
:400E400036363636353636363636290099240CE081240AE09A2408E0842406E08E2404E0E62402E0F82400E09424A2B27B899A42C0F04C81B889824200F248818AB200924D
:400E8000B7F9062090B20590002800F03F814FEAD00A10F0070F01D00AF1010A386910B1E51A405D05909B48006890F8605015F0020F00F08C80C56DB7F90830009A1A4473
:400EC000531E059E04983218013A1BB212B2A84780463B79002B36D17B89E41AB7F9083004FB03F303FB0AF30022009225E03A6803F1010BD65C00240CE016F0010F02D032
:400F00000198C04701E00298C0477608013DADB20134A4B2072C01D8002DEED109F101091FFA89F95B4602E0059D4FF00009D145DDD3009A013292B20092B7F9082000990B
:400F40009142F1DBE2E0012B40F0E0807B89E41AB7F9083004FB03F3B7F9062003FB02F30026DDF814B0019DDDF808902AE03A6803F1010AD35CE8B25FFA89F2C3F58071F1
:400F800001FB02F203FB002005F47F4E09F47F4202FB01F20EFB03231B12C0F3072023F0FF03184380B2C0470134A4B2534600E000245C45DBD3B7F90620CBEB0202134472
:400FC0000136B6B2B7F908209642F1DB9EE0397900294BD1E31AB7F9082003FB02F303FB0AF3002203923BE0BDF81060059D4FF000092BE03A6803F1010B12F8038000245F
:401000001BE018F0010F08D0424B1B681B68019ABDF9001030B2984707E03E4B1B681B68029ABDF9001030B298474FEA58080136B6B2013DADB20134A4B2072C01D8002DDE
:40104000DFD109F101091FFA89F95B46D145D1D3009A013292B20092039A013292B20392B7F9082003999142BEDB4FE001294DD1E41AB7F9083004FB03F303FB02F34FF016
:401080000008DDF814B0019EDDF808903AE0BDF81050002427E03A6803F1010AD35CF0B25FFA89F2C3F5807101FB02F203FB002206F47F4E09F47F4000FB01F10EFB03139B
:4010C0001B12C2F3072223F0FF031A43114B1B681B6892B2BDF9001028B298470135ADB20134A4B253465C45D5D3B7F90620CBEB02021344009A013292B2009208F10108C0
:401100001FFA88F8B7F908209045C0DB07B0BDE8F08F00BF6481FF1F10B582B0054C24682C340194BDF810400094FFF757FE02B010BD00BF6481FF1F2DE9F04383B0804601
:401140000F461546064635E0013583B21C4A1468E28E93422ED3218F8B422BD80A2802D1B4F9046026E0E36B1BB1821A13F8029001E094F8329006EB0902B4F90430013B94
:401180009A4207DDB4F9342094F9413013441F443FB24646B4F84230B4F8442000923A463146FFF7B9FF064B1B6893F940304B441E4436B228780028C6D103B0BDE8F08301
:4011C0006481FF1F2DE9F04F89B0B0F908300493B0F90A40B0F90C300593B0F90E5090F814A04368B3F906200392B3F908B0B0F91690B0F91820069207681B68002B00F0E8
:401200008980002F00F086802B1B5B45C0F282803B46012104E00A2A01D1013189B201331A78002AF7D11AF0300F0DD02B1B01339BB20BFB11339BB20139069A01FB123395
:401240001BB2002B01DA65E000231AF0100F00D05B10064623441BB2CDF81CB09B463846002415E099B272685589A94203D3B2F80CE0714501D901300AE0126912B15B1B8D
:40128000D35C01E0BDF80C304B441C44A4B2013003780BB10A2BE5D11FFA89F8C8EB04039BB2BDF81040059A121B013292B2D31A1BB2002B2EDB1AF0010F04D11AF0020FB4
:4012C00002D05B1000E000231C4424B217E0013705B3338A72680192728A00925A4621462846FFF77BFD73681A691AB15B89ED1A515D01E0BDF80C10414421440CB23D7825
:401300000A2DE4D10137079B069A13445B440FFA83FBA4E709B0BDE8F08F00BF10B4002309E041685A018C188A5C02F00302032A06D00133DBB202789342F2D3002000E076
:40134000204610BC704700BF70B400230FE045685C012E192C5D04F00304022C05D1347E8C4202D1747E944206D00133DBB20478A342ECD3002000E0304670BC704700BFCC
:40138000F0B52E4B1B68B3F90A60B3F90C7093F808E0057800234DE041685A018C188A5C617802F04B020A2A41D1BEF1000F27D0B6F1FF3F24D011F0400F03D101F0670117
:4013C00041F0050101F0DF02B4F908C0664514DBB4F90CC0664510DCB4F90AC067450CDBB4F90EC0674508DC42F0200211F0400F03D101F0DB0242F0220242F0400116E0AB
:4014000011F0400F13D011F0200F07D011F0020F01D041F0800141F0080101E041F0100111F0400F01D041F0010101F0B901617001339BB2AB42AFD3F0BD00BF6481FF1F51
:401440002DE9F843074690F8008000241FE07A686301D618D55C96F8019005F00303022B13D115F0200F03D0736831463846984715F0080F09D015F0800F06D019F0410FA5
:4014800003D073683146384698470134A4B24445DDD3BDE8F88300BF70B582B00546134B00249C6002221A7106781AE06A686301D1180191D35C03F00303022B0FD18B7ED1
:4014C0006BB10A4801AA82600A7E42714A7E8271C3712B6B043098470022019B9A760134A4B2B442E2D302B070BD00BF6481FF1F2DE9F04F87B081460F4614469846109DEC
:401500001FFA82FB0BF1FF331BB21A462B8800930B460392FFF796FB1FFA87FA0AF1010319B21FFA88F6731E18B26B880093049003464A4602914846FFF784FBAB88009362
:401540004346224641464846FFF77CFBEB880093049B224639462046FFF774FB1FFA89F404F101090FFA89F9ABF102031FB22B89009302990B4605973A464846FFF762FBDF
:401580000AF102073FB2A6F102080FFA88F86B89009343464A4639464846FFF753FBAB890093DDF810E07346039A71464846FFF749FBEB8900934346039802460299FFF7B6
:4015C00041FB023424B2ABF103022B8A00933B4612B239462046FFF735FB033E36B20AF103016B8A00933346224609B22046FFF729FBAB8A00934346DDF814904A464146BD
:401600002046FFF71FFBEB8A009333464A4639464846FFF717FB07B0BDE8F08F00B583B002238DF803308DF800300B7E8DF801304B7E8DF802300191036B6846984703B0BA
:401640005DF804FB00B583B003238DF8033002238DF800300B7E8DF801304B7E8DF802300191036B6846984703B05DF804FB00BF032807D8044B1B68093003EBC000416000
:4016800003230372704700BF6481FF1F024B1B68588199811A7270476481FF1F002848D0F8B50746002947D0002A48D0002007E044010D1903260E550026EE610130C0B23B
:4016C0009042F5D33C461E463A70796002233B7200257D814EF67D73BB81FD813D82FFF76DFB01387882FFF771FB0138B8823E630323BB75BD61134B1B6813B12C33FB616A
:4017000001E00023FB61022384F8203084F82130112384F822304FF6FF73A3841F22E284238548F2104363850F2384F82C300020F8BD4FF0FF3070474FF0FF30F8BD4FF081
:40174000FF30F8BD6481FF1F50B1037A43F0280323F040030372044B1B681861002070474FF0FF30704700BF6481FF1F2DE9F04782B00446884617469946BDF928A0FFF78B
:401780001DFB013805B2FFF721FB002C6ED0013806B2217A11F0020F6BD0B8F1000F6BDB002F6CDB4D456DDB56456EDBC8EB09031BB2092B6CDDBBB2C3EB0A0212B2092A73
:4017C00069DDA4F80E802782A4F81290A4F814A011F0080F62D0344A126851698C425FD14FB1013BB2F8462000921BB22A4600210846FFF7D9F9B4F91410013109B28E4268
:4018000009DB294B1B68B3F84630009333462A460020FFF7C9F9B4F90E206AB1224B1868B4F91430013AB4F91010B0F84600009012B20020FFF7B8F9B4F91200013000B2D1
:4018400085420BDB184B1A68B4F91430B4F91010B2F8462000922A46FFF7A6F9237A03F0BF0343F02003237200201AE04FF0FF3017E04FF0FF3014E04FF0FF3011E04FF0B5
:40188000FF300EE04FF0FF300BE04FF0FF3008E04FF0FF3005E04FF0FF3002E0002000E0002002B0BDE8F0876481FF1F48B1037A13F0020F08D0816143F060030372002059
:4018C00070474FF0FF3070474FF0FF30704700BFC0B10246037A13F0020F16D010B443F060030372C16190F82C40B1F90810481C84420DDC023182F82C1023F0400313727A
:40190000002006E04FF0FF3070474FF0FF307047002010BC704700BF98B1027A12F0020F12D010B582B0C181B0F91230B0F91020B0F914400094FFF719FFB0F1FF3F06D1E9
:4019400006E04FF0FF3070474FF0FF307047002002B010BDA0B1027A12F0020F13D010B582B00A460182B0F91230B0F90E10B0F914400094FFF7FAFEB0F1FF3F06D106E03E
:401980004FF0FF3070474FF0FF307047002002B010BD00BFA0B1037A13F0020F13D010B582B00B464182B0F91020B0F90E10B0F914400094FFF7DAFEB0F1FF3F06D106E014
:4019C0004FF0FF3070474FF0FF307047002002B010BD00BFA0B1027A12F0020F13D010B582B00C468182B0F91230B0F91020B0F90E100094FFF7BAFEB0F1FF3F06D106E0C7
:401A00004FF0FF3070474FF0FF307047002002B010BD00BF48B30346027A12F0020F27D070B4B0F90E500D80B0F910404C80B0F912008880B3F91420CA809E7D16F0010F99
:401A400007D003350D8003344C8003388880033ACA809A7D12F0020F0DD093F82C204B88134401334B80002006E04FF0FF3070474FF0FF307047002070BC7047F0B58DB0C1
:401A8000CD694B7813F0010F27D013F0800F05D001228A760A7842F020020A7013F0020F0AD02B7843F001032B700B7843F020030B7004238B760CE02B7813F0010F08D0F0
:401AC00023F001032B700B7843F020030B7005238B764B7823F001034B700B7813F0200F00F0E4800C46064613F0080F00F0CA8013F0400F04D12B7813F0020F00F0958044
:401B00000AA93046FFF786FFB4F91030BDF828703B442381B4F91210BDF82A0001446181B4F914203A4412B2A281B4F9163003441BB2E381B6F914108B4200F3B780B6F9A5
:401B400012309A4200F3B28021463046FFF766FD6B7813F0010F01D0032700E00127AB88ADF81E306B88ADF81C302B7813F0010F13D06B7813F0020F06D06B88ADF81E309D
:401B8000AB88ADF81C3008E013F0040F05D02B89ADF81E30EB88ADF81C306B7813F0100F16D1B4F908E0B8B2B4F90A10B4F90C20B4F90E301B1A121A01447044BDF81EE0A0
:401BC000CDF800E01BB212B209B200B2FEF7ECFFB4F90820BBB21A44ADF81420B4F90A201A44ADF81620B4F90C20D21AADF81820B4F90E20D31AADF81A302B7C8DF8203004
:401C0000EB6804930223ADF82230ADF824306B690CA840F8243DFFF7D5FA237823F04003237021463046FFF70DFD6B7813F0080F38D113F0010F12D0B4F90800B4F90A10E7
:401C4000B4F90C20B4F90E302D7815F0010F01D0174D00E0174D0095FFF74AFC22E0B4F90800B4F90A10B4F90C20B4F90E302E7816F0010F01D02D8900E0ED880095FFF737
:401C800067F80FE06B7813F0100F0BD1B1F90E30B1F90C20B1F90A10B4F90800B5890095FEF782FF237823F0200323700DB0F0BD7C50000094500000F0B58DB0CE690B785B
:401CC00013F0200F79D00C46054613F0080F64D013F0400F6DD00AA9FFF79CFEB4F91030BDF828703B442381B4F91210BDF82A0001446181B4F914203A4412B2A281B4F987
:401D0000163003441BB2E381B5F914108B4254DAB5F912309A4250DA21462846FFF77EFCB789ADF81E707389ADF81C30B4F90E30B4F90C20B4F90A10B4F908000097FEF7B1
:401D400033FFB4F90830ADF81430B4F90A30ADF81630B4F90C30ADF81830B4F90E30ADF81A30B37B8DF820307368049396F90F30ADF8223096F91030ADF8243033680CA890
:401D800040F8243DFFF71EFA237823F04003237021462846FFF756FC0BE0B1F90E30B1F90C20B1F90A10B4F90800AD890095FEF7FBFE237823F0200323700DB0F0BD00BF73
:401DC000002869D00346027A12F0020F67D02DE9F0418AB0B0F90E50B0F91080B0F91260827D12F0010F07D003352DB208F103080FFA88F8033E36B22C4A12685269934262
:401E000006D1DA8CADF81E209A8CADF81C2005E05A8DADF81E201A8DADF81C201C4693F82C301FFA88F73B44013BBDF81E2000921BB2324641462846FEF7B6FEA36903939E
:401E4000E3690493EB1CADF81430ADF81680ADF8186094F82C303B44013BADF81A3094F822308DF8203094F92030ADF8223094F92130ADF8243003A8FFF7A4F994F82C1041
:401E8000394409B249F6135300930B4632462846FEF7D8FE002005E04FF0FF3070474FF0FF3070470AB0BDE8F08100BF6481FF1F2DE9F04182B0B0F90E60B0F91050B0F98D
:401EC0001270B0F91480037A03F0DF03037213F0080F4AD00446827D12F0010F14D013F0400F11D1284B009343463A4629463046FFF7FEFA033636B203352DB2033F3FB268
:401F0000A8F103080FFA88F8A37D13F0020F0FD02046FFF755FF94F82C301D4401352DB2237A13F0400F03D023F04003237227E0A389009343463A4629463046FEF734FECB
:401F4000267800230EE060685901425C02F00305022D05D112F0080F02D042F06002425401339BB2B342EED30AE0084B1B68B3F84630009343463A4631463046FEF714FE36
:401F800002B0BDE8F08100BFDC5000006481FF1F10B5294B1B6893F8482012F0010F03D022F0010283F848201A695869824229D042B398615A61C8B1837D13F0020F15D0C3
:401FC000037A13F0080F11D0B0F90E10B2F90E30994209D101691369994205D1B0F91410B2F91430994201D0FFF7EAFE124B1A6851690B7A23F040030B725269137A43F0BB
:40200000280313720C4B1B685C699CB1237A13F0200F02D02046FFF74BFF237A13F0080F08D02046FFF7ACF92046FFF709FA2046FFF732FA10BD00BF6481FF1FF8B50546BF
:402040000C4616461F46FFF769F9002838D0034600222270AA89A2806A896280AA8922816A89E2800122627012222274164A126812B12C32E26001E00022E260134A626112
:40208000134A5A600020587001221A7698761F82BDF918205A82BDF91C209A82BDF92020DA824FF6FF721A815A819A81DA815E761A7842F0CA02DC6122F001021A70F8BDFE
:4020C0004FF0FF30F8BD00BF6481FF1F803D01007D1A000008B50A460121FFF735F928B1037843F068030370002008BD4FF0FF3008BD00BF08B50A460121FFF725F978B1AB
:402100000346C1690A7822F001020A700020587098761A7802F0F70242F020021A7008BD4FF0FF3008BD00BF10B514460A460121FFF70AF938B1C2695480027842F0600293
:402140000270002010BD4FF0FF3010BD10B514460A460121FFF7F8F838B1C2695461027842F060020270002010BD4FF0FF3010BD10B514460A460121FFF7E6F838B1C26964
:40218000D460027842F060020270002010BD4FF0FF3010BDF8B505460C4616461F46FFF7BDF8002833D0034600222260194A126812B12C32626001E000226260002020723E
:4021C0006A896281AA89A2811222A273E0732074114A5A60587002221A7698761F82BDF918205A82BDF91C209A82BDF92020DA824FF6FF721A815A819A81DA815E761A7811
:4022000042F04A02DC6122F001021A70F8BD4FF0FF30F8BD6481FF1FB91C000010B514460A460221FFF790F838B1C2695481027842F060020270002010BD4FF0FF3010BDF3
:4022400010B514460A460221FFF77EF838B1C2691460027842F060020270002010BD4FF0FF3010BD10B514460A460221FFF76CF838B1C2695460027842F0600202700020DC
:4022800010BD4FF0FF3010BD10B514460A460221FFF75AF838B1C2699473027842F060020270002010BD4FF0FF3010BD38B50446002002F085F8E4B2002002F08DF8002561
:4022C00019E014F0800F03D0012002F091F802E0002002F08DF8002002F07EF80A2002F0A7F9012002F078F80A2002F0A1F96400E4B20135EDB2072DE3D9012002F06CF8B7
:402300000A2002F095F9002002F066F80A2002F08FF90024254613E06400A4B2012002F05BF80A2002F084F9002002F055F80A2002F07EF902F068F8204384B20135EDB2F2
:402340000B2DE9D9012002F03BF8204638BD00BF08B58020FFF7AAFF052002F047F908BD2DE9F8438146884600259020FFF79EFF9020FFF79BFF07469020FFF797FF064688
:40238000D020FFF793FFD020FFF790FF0446D020FFF78CFF0135ADB221460246241A002CB8BF6442322C05DDBB1B002BB8BF5B42322BDADCFE2DD8D836D80A4402EBD272DA
:4023C0003E4406EBD67640F6FF73A3EB6606B6B2C2F34F03783B4FF4487202FB03F3144A82FB03121A44DB17C3EBE2239BB2B3F5487F01D34FF44873A6F1C802C2EB0212C7
:4024000051010C4A82FB0102C917C1EB222292B2B2F5F07F01D34FF4F072A9F80030A8F800200120BDE8F8830020BDE8F88300BFAD322087931CA91210B5C020FFF736FF40
:402440000446B020FFF732FF201A80B210BD00BF04E00A7802701A4601310130531E002AF7D1704702E001701A460130531E002AF9D1704770B4002301E029463046541EEF
:4024800032B1461C03784D1C087822461B1AF4D0184670BC704700BF00E0013003780BB18B42FAD118467047CA7E8B7E43EA02230278032A05D1487D0A7D42EA002243EA36
:4024C00002431846704700BF8176C1F30723C376090C0175090A4175704700BF2DE9F84F89460C6800E0013423782F2BFBD05C2BF9D087690B2220213846FFF7B3FF237807
:402500002E2B1FD100210B465A1CE35C2E2B05D1022A03D87B5413460131F5E72F2B03D05C2B01D0202B6FD82244C9F80020202B01D8242300E02023FB720020BDE8F88F1A
:40254000534604E0002633464FF00808B34603F1010AE55C202D31D92F2D2FD05C2D2DD02E2D01D0B0450CD8B8F1080F4FD12E2D50D14FEA8B0B5FFA8BFB08264FF00B08F0
:40258000DEE715F0800F48D129462848FFF784FF002845D1A5F14103DBB2192B02D84BF0020B08E0A5F16103DBB2192B03D84BF0010B203DEDB2BD550136C1E75444C9F82B
:4025C0000040202D01D8042300E000235EB33A78E52A01D105223A70B8F1080F03D14FEA8B0B5FFA8BFB0BF00302012A01D143F010030BF00C0BBBF1040F01D143F0080370
:40260000FB720020BDE8F88F0620BDE8F88F0620BDE8F88F0620BDE8F88F0620BDE8F88F0620BDE8F88F0620BDE8F88FE8D80100016821B94FF0FF3316E0013200E00A4627
:402640001378202B01D93A2BF7D13A2B0BD110B44C1C0B78303B092B08D8A24209D15BB9013202600AE00023184670474FF0FF3304E04FF0FF3301E04FF0FF33184610BC43
:40268000704700BFF8B5037903B30446066B00F13407012332463946407801F0CBFBB8B900232371636AF31AE269934212D2E57808E0E3691E44012332463946607801F077
:4026C000B9FB013D012DF4D80020F8BD0020F8BD0120F8BD0020F8BD70B5036B8B4212D004460D46FFF7CEFF064668B901232A4604F13401607801F069FB10B101264FF078
:40270000FF35256300E00026304670BD10B50446002303714FF0FF330363FFF7DDFF80BB94F8332294F8323243EA02231BB2194A934228D194F86D2094F86C301B0443EAFC
:40274000026394F86B2043EA022394F86A20134323F07F43104A934217D094F8892094F888301B0443EA026394F8872043EA022394F88620134323F07F43074A934206D12B
:4027800010BD032010BD022010BD002010BD012010BD00BF55AAFFFF4641540080B108B503687BB1197879B1D988828891420DD1587801F071FA10F0010F09D1002008BDA4
:4027C00009207047092008BD092008BD092008BD092008BDF0B585B006461746002303600846FFF725FF051EC0F27E81CC4B53F82540002C00F07A813460237873B16078F3
:4028000001F04AFA10F0010F08D1002F00F0708110F0040F40F06E81002092E100232370E8B2607001F040FA10F0010F40F064811FB110F0040F40F0618100212046FFF7C3
:4028400065FF01281CD000262EE004F134030A0102F5DF7213441A7952B1D87A9A7A120442EA0062587A42EA00221B7A1A4300E0002204AB03EB810343F8102C013100E077
:4028800000210329E1D9002504AB03EB850353F8106C26B131462046FFF738FF00E0022010B10135032DEFD9032800F02981002840F0288194F8402094F83F3043EA02232F
:4028C0001BB2B3F5007F40F01F8194F84B1094F84A3053EA01210DD194F85B2094F85A301B0443EA026394F8591043EA012394F858101943E16194F84420E270531EDBB204
:40290000012B00F2038101FB02F794F84130A370002B00F0FD805A1E134240F0FB8094F846E094F8452042EA0E2EA4F808E01EF00F0F40F0F18094F8480094F8472052EA81
:4029400000220DD194F8570094F85620120442EA006294F8550042EA002094F85420024394F8435094F8420050EA052000F0D68007EB000C0CEB1E1C6245C0F0D980CCEB34
:402980000202B2FBF3F3002B00F0D48040F6F572934201D8012500E002254FF6F572934200D903250233A36126623218626206EB0C00E062032D14D1BEF1000F40F0BC80CA
:4029C00094F8630094F86220120442EA006294F8610042EA002294F860000243A2629B000FE0BEF1000F00F0A9803A44A262022D01D15B0005E003EB430203F0010303EB8A
:402A0000520303F2FF13B1EB532FC0F099804FF0FF332361E36080236371032D5AD194F8652094F8643043EA02231BB2012B51D1711C2046FFF750FE00284BD10023637139
:402A400094F8332294F8323243EA02231BB2354A93423FD194F8372094F836301B0443EA026394F8352043EA022394F8342013432D4A93422ED194F81B2294F81A321B0408
:402A800043EA026394F8192243EA022394F818221343264A93421DD194F81F2294F81E321B0443EA026394F81D2243EA022394F81C221343236194F8232294F822321B0431
:402AC00043EA026394F8212243EA022394F820221343E3602570124A938801339BB29380E380002060612CE00B202AE00C2028E0002026E00A2024E0032022E00A2020E0C0
:402B000001201EE00D201CE00D201AE00D2018E00D2016E00D2014E00D2012E00D2010E07081FF1F55AAFFFF52526141727241610D2006E00D2004E00D2002E00D2000E069
:402B40000D2005B0F0BD00BF70B50446FFF79AFD0546002854D12378032B4AD16379012B47D104F134064FF4007200213046FFF779FC552384F83232AA2384F8333252230E
:402B800084F8343084F83530612384F83630412284F83720722184F8181284F8191284F81A2284F81B32236984F81C32C3F3072284F81D22C3F3074284F81E221B0E84F807
:402BC0001F32E36884F82032C3F3072284F82122C3F3074284F822221B0E84F82332226A0132226301233146607801F023F90023637100221146607801F060F900B10125E7
:402C0000284670BD02398369023B994204D28378C06A01FB0300704700207047012960D9F8B5836999425ED20C4606460378022B29D0032B3AD0012B57D101EB5105416A73
:402C400001EB5521FFF748FD002850D16F1CC5F30805354495F83450716A01EB57213046FFF73AFD002845D1C7F30800304490F8340045EA002014F0010F01D00009F8BD90
:402C8000C0F30B00F8BD416A01EB1421FFF724FD98BB610001F4FF7101F13003334458790E4496F8343043EA0020F8BD416A01EBD411FFF711FD18BBA10001F4FE7101F1A8
:402CC00030023244D07993791B0443EA0063507943EA0023701890F83400184320F07040F8BD012070470120F8BD0120F8BD4FF0FF30F8BD4FF0FF30F8BD4FF0FF30F8BD0E
:402D00004FF0FF30F8BD00BFF8B50546C1808468012C35D00E4603689A69944232D21CB91A78032A00D19C6A24B91A8996422BD2986A17E09F783F010EE021462868FFF7D3
:402D40006DFF0446B0F1FF3F20D0012820D92B689B6998421ED2F61BBE42EED221462868FFF750FFEC60B8B100EB161028612B68343306F00F0603EB46166E610020F8BDFC
:402D80000220F8BD0220F8BD0220F8BD0120F8BD0220F8BD0220F8BD0220F8BD012940F287808369994280F086802DE9F04116460C4605460378022B41D0032B55D0012B1B
:402DC0007BD101EB5107416A01EB5721FFF784FC0346002872D107F10108C7F3080714F0010408D0EB1993F8343003F00F0343EA0613DBB200E0F3B22F4487F83430012395
:402E00002B71696A01EB58212846FFF765FC0346002853D1C8F3080814B1C6F3071208E005EB080292F8342022F00F01C6F303220A43A84488F8342001222A713EE0416AAE
:402E400001EB1421FFF748FC0346B8BB610001F4FF7101F130002844294481F83460C6F30722427101222A7128E0416A01EBD411FFF732FC034608BBA10001F4FE7101F16F
:402E800030002844C4798279120442EA0462294402F07042324381F83420C2F307214171C2F307418171120EC27101222A7105E00223184670470223FBE702231846BDE866
:402EC000F08100BFF8B505460F4629B9C6687EB183699E420ED20EE0FFF7A0FE012841D9B0F1FF3F49D0AB69984246D33E4602E0012600E0012634460134AB699C4202D39C
:402F0000012E31D9022421462846FFF787FE38B1B0F1FF3F2AD0012829D0B442ECD127E06FF0704221462846FFF738FF034630B92FB1224639462846FFF730FF034663B940
:402F4000EC602B69B3F1FF3F14D0013B2B616B7943F001036B712046F8BD012B0CD14FF0FF30F8BD0120F8BD0020F8BDF8BDF8BD0020F8BD2046F8BD0120F8BD2DE9F04183
:402F8000C4880134A3B2002B66D00369002B66D00E46054614F00F0755D101330361C16821B903681B899C425CD24CE000688378013B13EA141346D1FFF730FE804601285F
:402FC00053D9B0F1FF3F53D028688369984533D3002E50D0E968FFF775FF804600284DD001284ED0B0F1FF3F4ED02868FFF74AFB00284CD128684FF4007200213430FFF71C
:4030000031FA2E6841463046FFF7FCFD306300260BE001221A712868FFF734FB002839D12A68136B0133136301362B689A789642EFD31A6B921B1A63C5F80C80414628686B
:40304000FFF7E0FD2861EC802B68343303EB47136B610020BDE8F0810420BDE8F0810420BDE8F0810420BDE8F0810220BDE8F0810120BDE8F0810420BDE8F0810720BDE821
:40308000F0810220BDE8F0810120BDE8F0810120BDE8F0810120BDE8F08100BF38B504460021FFF731FEC0B921692068FFF714FB054698B9606903788BB1C37A13F0080F83
:4030C00004D10B22A169FFF7D5F950B100212046FFF754FF0028E7D038BD38BD38BD042038BD284638BD00BF30B583B0044601910B782F2B01D05C2B04D101310191002351
:40310000A36002E003685B698360019B1B781F2B07D800212046FFF7F7FD05460023636130E001A92046FFF7D9F9054650BB2046FFF7B4FFA369DB7A80B104281BD113F0A3
:40314000200F06D00022A260626113F0040FE8D018E013F0040F10D0054613E013F0040F0DD16169CB7A13F0100F0AD02068FFF79BF9A060D5E7054604E0052502E0054616
:4031800000E00525284603B030BD00BF70B504460E460021FFF7B8FD0246B8B9002521692068FFF799FA024680B963691B78E52B00D01BB90135B54201D107E0002501216F
:4031C0002046FFF7DBFE02460028E8D0042A00D10722104670BD00BF38B505460121FFF7D5FF044690B929692868FFF775FA044660B9202200216869FFF734F90B22A969D1
:403200006869FFF725F92B6801221A71204638BDF8B5012927D904460D468369994224D200271CE029462046FFF7F8FC064608B301281CD0B0F1FF3F1BD00022294620461D
:40324000FFF7ACFD0746A8B92369B3F1FF3F05D001332361637943F0010363713546A3699D42DFD306E0022704E0022702E0022700E001273846F8BD10B584B0019000918A
:40328000144604A840F8041DFFF7D2F9002816DB0E4B53F820300BB100221A70019B0BB100221A70019B094A42F820304BB1012C09D10022694601A8FFF78CFA04E00B20F4
:4032C00002E0002000E0002004B010BD7081FF1F2DE9F0438DB00191002800F0A680054616460023036002F01F0802F01E0201A905A8FFF76FFA002840F0998002AB0B931C
:40330000019905A8FFF7F0FE0A9F044608B907B9062416F01C0F4ED04CB1042C03D105A8FFF75AFF044648F008080A9F0AE0FB7A13F0110F03D116F0040F02D102E00724EE
:4033400000E00824002C45D118F0080F42D000F023FEC1B2B973C0F30722FA73C0F307433B74000E7874B975FA753B7678760026FE723E777E77BE77FE7739460598FFF7F7
:4033800093F8814631463846FFF79EF8059801230371B9F1000F1DD0066B4946FFF738FF0446B8B9059809F1FF33C3603146FFF793F904460EE06CB9FB7A13F0100F06D1C7
:4033C00016F0020F06D013F0010F02D102E0042400E0072444B918F0080F01D048F02008059B1B6BEB612F6214BB85F806804FF0000885F80780059E39463046FFF754F89E
:403400002861FA7FBB7F1B0443EA02637A7F43EA02233A7F1343EB60C5F80880C5F818802E60F388AB80204603E0092001E000E020460DB0BDE8F0832DE9F84F0446884649
:4034400015461F4600233B60FFF7A8F9002840F0AA80E079002840F0A980A37913F0010F00F0A380E668A368F61AAE42C0F095802E4692E0A268C2F30803002B76D12068D1
:403480008378013BDBB213EA522913D10AB9206902E06169FFF7C2FB012803D80220E071BDE8F88FB0F1FF3F03D10120E071BDE8F88F6061D4F800A061695046FFF7A2FB2D
:4034C000054618B90220E071BDE8F88F4D445FEA562B26D009EB0B039AF80220934201D9C9EB020B5B462A4641469AF8010000F06DFC18B10120E071BDE8F88FA37913F090
:40350000400F0BD0A069401B834507D94FF4007204F1240108EB4020FEF79AFF4FEA4B2533E0A269954220D0A37913F0400F0FD0012304F124019AF8010000F07BFC18B1C9
:403540000120E071BDE8F88FA37923F04003A371214651F8240B01232A46407800F036FC18B10120E071BDE8F88FA561A168C1F30801C1F50075AE4200D235462031214489
:403580002A4604314046FEF763FFA844A3682B44A3603B682B443B60761B002E7FF46AAF0020BDE8F88FBDE8F88F0720BDE8F88F2DE9F84F0446884616461F4600233B6069
:4035C000FFF7ECF8002840F0C780E079002840F0C680A37913F0020F00F0C080A368F342C0F0AB800026A8E0A268C2F30803002B40F0888020688378013BDBB213EA522941
:403600001FD132B9236943B90021FFF75BFC034603E06169FFF756FC0346002B00F09080012B03D10220E071BDE8F88FB3F1FF3F03D10120E071BDE8F88F6361226902B90A
:403640002361A37913F0400F10D0214651F8240B0123A269407800F0EDFB18B10120E071BDE8F88FA37923F04003A371D4F800A061695046FFF7C6FA054618B90220E071DC
:40368000BDE8F88F4D445FEA562B26D009EB0B039AF80220934201D9C9EB020B5B462A4641469AF8010000F0C5FB18B10120E071BDE8F88FA169491B8B450BD94FF400724E
:4036C00008EB412104F12400FEF7C2FEA37923F04003A3714FEA4B2527E0A3699D4210D0A268E3689A420CD201232A4604F124019AF8010000F06AFB18B10120E071BDE821
:40370000F88FA561A068C0F30800C0F50075AE4200D23546203020442A4641460430FEF797FEA37943F04003A371A844A3682B44A3603B682B443B60761B002E7FF454AF78
:40374000A368E268934200D9E360A37943F02003A3710020BDE8F88FBDE8F88F0720BDE8F88F00BF4368002B1BDB30B583B004465D1C034419733C2D0DDD01AB2A4600F119
:403780000C010068FFF714FF019B9D4201D1002501E04FF0FF356560A3680133A36003B030BD704738B50446FEF7F8FF002843D1A27912F0200F40D012F0400F0DD0214617
:4037C00051F8240B0123A269407800F033FB002834D1A37923F04003A371E1692068FEF77BFF68BB256AEB7A43F02003EB72237B2B77637B6B77A37BAB77E37BEB77216904
:403800002846FEF761FE00F0C7FBA875C0F30723EB75C0F307432B76000E68760023AB74EB74A37923F02003A371236801221A712068FFF789F938BD38BD38BD012038BDFB
:4038400038BD00BF10B50446FFF7ACFF034630B92046FEF7A3FF034608B900222260184610BD00BFF8B504460D46FEF797FF0646002840F0A380E079002840F0A180E36864
:40388000AB4204D2A27912F0020F00D11D46A3680022A260002D5CD0206887787F026BB16A1EB2FBF7F2013BB3FBF7F18A4205D37A421340A360ED1A616911E0216971B91B
:4038C000FFF700FB0146012802D10220E071F8BDB0F1FF3F02D10120E071F8BD2061616119BB002538E0A37913F0020F05D02068FFF7E8FA014620B91AE02068FFF78EF9BB
:403900000146B1F1FF3F02D10120E071F8BD012903D923689B69994202D30220E071F8BD6161A3683B44A360ED1BBD42DBD800E03D46A3682B44A360C5F308035BB12068B9
:40394000FFF760F910B90220E071F8BD00EB552502E0002500E00025A368C3F3080313B3A26995421FD0A37913F0400F0ED0214651F8240B0123407800F05CFA10B1012004
:40398000E071F8BDA37923F04003A371214651F8240B01232A46407800F018FA10B10120E071F8BDA561A368E268934207D9E360A37943F02003A3713046F8BDF8BD304637
:4039C000F8BD00BF2DE9F04182B080460E4617460546002410E06B46012201A93846FFF72BFD009B012B0CD19DF804306A1C2B7001340A2B04D01546731E9C42EBDB00E0AE
:403A0000154600232B700CB9184600E0404602B0BDE8F08110B594B00446019100230293039303E0013401A8FFF79CFE21780029F8D1029A002A0BDB6B4604A90198FFF774
:403A4000B7FD40B9009B029A9A4207D1039807E04FF0FF3004E04FF0FF3001E04FF0FF3014B010BD70B506460D4600F053FD00F043FD002403E0305D00F01AFD0134AC429A
:403A8000F9D300F027FD0028FBD170BD70B505460C4600F03FFD00F02FFD00E03546FF2000F006FD00F016FD0028FBD10A2000F0B3FD6E1C00F008FD2870013CEED170BD8D
:403AC00010B582B041F288340CE001210DF10700FFF7DCFF9DF80730FF2B05D0642000F09BFD013C002CF0D1201C18BF012002B010BD00BF70B582B005460E464FF47A7462
:403B00000BE0012101A8FFF7C1FF9DF80430FF2B05D1642000F080FD013C002CF1D19DF80430FE2B09D131462846FFF7AFFF022101A8FFF7ABFF012000E0002002B070BD73
:403B400030B583B005460C46FFF7BAFF034628B302A800F8044D0121FFF784FF0A2000F05BFDFD2C17D04FF400712846FFF77AFF0A2000F051FD022101A8FFF787FF01214A
:403B800001A8FFF783FF9DF8043003F01F03052B03D0002302E0012300E00123184603B030BD00BF00B583B0012000F005FD012000F032FD01210DF10700FFF767FF03B0A8
:403BC0005DF804FB10B582B0002000F0F5FC012000F022FD01210DF10700FFF757FFFFF76FFF18B90446FFF7DDFF00E00124204602B010BD30B583B004460D4610F0800F57
:403C000007D000F07F0400213720FFF7F3FF01283FD80C2C04D0FFF7C5FFFFF7D3FFB8B344F040038DF800302B0E8DF80130C5F307438DF80230C5F307238DF803308DF8AE
:403C400004500CB1012300E09523082C00D187238DF8053006216846FFF704FF0A2000F0DBFC0C2C04D101210DF10700FFF70EFF142401210DF10700FFF708FF9DF8070020
:403C800010F0800F05D0631E13F0FF04F1D100E0FF2003B030BD00BF10B9024B1878704701207047CC80FF1F002840F0878070B582B042F2107000F0AFFC0A2405E0012120
:403CC00001A8FFF7E3FE013CE4B2002CF7D100210846FFF78FFF012858D14FF4D5710820FFF788FF01282FD104210DEB0100FFF7CDFE9DF80630012B4AD19DF80730AA2B4F
:403D00000CD050E04FF08041A920FFF773FF48B14FF47A7000F080FC013C01E04FF47A74002CEFD1B4B300213A20FFF763FF98BB04210DEB0100FFF7A9FE9DF8043013F065
:403D4000400F2BD00C242EE00021A920FFF752FF012802D8A926022401E0012634464FF47A7509E000213046FFF744FF30B14FF47A7000F051FC013D002DF3D185B14FF432
:403D800000711020FFF736FF60B90CE000240AE0002408E0002406E0002404E0042402E0002400E00024074B1C70B4FA84F46409054B1C70FFF7F6FE204601E0032070477C
:403DC00002B070BD7681FF1FCC80FF1FF8B50D4616461C46FFF760FF10F0010F25D1144B1B7813F0080F00D17602012C01D9122700E0112731463846FFF7FCFE78B94FF446
:403E000000712846FFF776FE18B105F50075013CF5D1122F03D100210C20FFF7EBFEFFF7C1FE201C18BF0120F8BD0320F8BD00BF7681FF1F70B50D4616461C46FFF72CFF1C
:403E400010F0010F36D11C4B1B7813F0080F00D17602012C0AD131461820FFF7CBFE18BBFE212846FFF76CFED8B91DE013F0060F03D021469720FFF7BDFE31461920FFF7AA
:403E8000B9FE88B9FC212846FFF75AFE18B105F50075013CF6D1FD210020FFF751FE10B102E0002400E00124FFF77CFE201C18BF012070BD032070BD7681FF1F30B585B056
:403EC0000C461546FFF7E8FE10F0010F60D1012C09D014B1032C4CD04FE0FFF773FE00284DD1012450E000210920FFF783FE002847D110216846FFF7FDFD002843D09DF811
:403F000000309B09012B10D19DF809309DF8082003EB02229DF807301B0403F47C13134401339B022B6000242EE09DF805209DF80A109DF809305B0002F00F0202EBD11248
:403F400003F0060313440233DBB29DF808109DF80720920002EB91119DF80620920202F440620A440132093B02FA03F32B6000240AE080232B60002406E0042404E0002403
:403F800002E0012400E00124FFF70CFE204600E0032005B030BD00BF0048704700545047FEE700BFF0B40022174611E050F82760F3B226F0FF0608E001EB420511F8124084
:403FC0006D78A5550132013BDBB2002BF4D10137152FEBD9F0BC7047064B1B78DBB203F00701054A11701B09013213704422034B1A707047CF0100496E580040765800401B
:4040000038B50122274B1A801823274A1370102102321180023213700222244B1A7008224FF040231A70032203F500731A70204B1B78DBB21F4A137040F242221E4B1A80EB
:4040400041F25122023B1A80002419250CE01B4B1B7803F0010343EA440404F003044FF4F07000F0E5FA013D0DB1032CEFD115B90320FFF795FF124B4FF480721A800722E8
:404080001A7000220F490A704820023108701A700222033B1A700C4A137843F00303137038BD00BF80400040824000400043004008010049A146004022420040254200405F
:4040C0000440004006400040A243004008B50A46002100F0F4FA08BD08B500F0E5FA08BD38B572B63A4C61232370FFF789FF01232370384A137843F00403137000240CE0AE
:40410000354D630019194A0011462A44084691882858FFF7DBFF0134E4B2072CF0D900240BE02D48A20011194B0003441A8F596B186BFFF7D1FF0134E4B2012CF1D9274911
:404140004FF09040FFF72EFF2022254B1A70254A137843F0020313701032137843F002031370214C237843F040032370A2F58632513A137843F0100313700A221B491C4861
:40418000FFF7AAFF0A221B491B48FFF7A5FF0A221A491B48FFF7A0FF08221A491A48FFF79BFF082219491A48FFF796FF0A2219491948FFF791FF194A137843F00803137030
:4041C000FFF70AFF0E2221461548FFF785FF38BD00480040E846004008D90100580000481260004003500140A0430040F8060048C051004004070048F051004010070048B2
:40420000105100401C0700482251004024070048525100402C0700486051004022430040B043004008B500F013FA03680C2B00D1FEE7FEE708B5094B1A681044084BC31A17
:40424000B3F5006F02DC054B186005E000F000FA0C2303604FF0FF32104608BDD080FF1F2084FF1F08B5104E104D16E029686B68AC68002204E051F8040B43F8040B0432A1
:40428000A242F8D1E868002203E0002143F8041B04328242F9D11035013E002EE6D100F0DDF9FBF78DFFFEE701000000A8D9010008B5104A104B1A60104A136843F400733D
:4042C000136000230AE0032B03D80D4A52F8231000E00C490C4A42F8231001332F2BF2D90A4B1A780A4B1A70074A0A4B1A60FFF7F7FE08BD0004FA050CED00E014ED00E0BD
:4043000000000000254200000080FF1FBC760040C080FF1F08ED00E0044A137803F07F03C001C0B218431070704700BFF05100400022034B1A70012210331A70704700BF20
:404340002A65004008B5044B1B7823B9FFF7F0FF0122014B1A7008BD7781FF1F044B1B7813F0010FFAD1034B1870103319807047696500404A65004010B40CE0084B1B787E
:4043800013F0010FFAD1074B18700C8810331C80013A92B20231002AF0D110BC704700BF696500404A650040044A137803F0FE0300F0010018431070704700BF60510040F6
:4043C000044A137803F0DF03400100F02000184310707047C0510040044A137803F0EF03000100F0100018431070704760510040044A137803F0BF03800100F040001843FF
:404400001070704760510040014B1878C009704761510040024B1878C0F34010704700BF61510040044A137803F0FB03800000F0040018431070704760510040044A137824
:4044400003F0F703C00000F0080018431070704760510040024B1878C0F3C000704700BF6151004008B500F0EBF80A4A137843F020031370FF3A137843F010031370023A4B
:40448000137843F01003137000F0DEF800F0A0F808BD00BF97650040014B1878704700BF68640040014B1878704700BF66640040034B1B7813F0040FFAD0024B1870704793
:4044C0006864004047640040014B1878704700BF57640040074B1B78DBB213F0020F04D113F0040F03D001207047002070470420704700BF6864004001E0044B1B78044BCD
:404500001B7813F0200FF8D1704700BF576400406664004008B500F093F8064B1A7842F001021A701A7802F0FE021A7000F08CF808BD00BF9764004008B501E00A4B1B78D1
:404540000A4B1B7813F0200FF8D100F079F8084B1A7842F001021A701A7802F0FE021A7000F072F808BD00BF57640040666400409764004008B50F22064B1A70FFF7DCFF8D
:40458000FFF78AFFFFF78EFF0023034A1370023A137008BD876500408864004008B5054B1B7823B9FFF7E6FF0122024B1A70FFF759FF08BD7881FF1F044A137803F07F0361
:4045C000C001C0B218431070704700BF10510040054A137843F0020313701032137843F002031370704700BFA243004010B5044605E0084B186800F01BF8A4F50044B4F58E
:40460000004FF6D8034B586800FB04F000F010F810BD00BFD480FF1F08B5034B1B7A00FB03F000F005F808BDD480FF1F000000000230800803D000BF01380046FCD1704769
:40464000EFF3108072B6704780F31088704700BF014B1868704700BF4481FF1F0E4B70B51E460E4C0025E41AA410A54204D056F8253098470135F8E719F084F9084B094CB0
:404680001E46E41AA4100025A54204D056F8253098470135F8E770BD90D9010090D9010090D9010098D9010010B5431E0A44914204D011F8014B03F8014FF8E710BD0346E0
:4046C0000244934202D003F8011BFAE7704700000EB400B54FF402719CB0ADF814106FF00041049107914FF6FF711DAB02900690084853F8042BADF81610006802A901932E
:4047000000F064F8029B00221A701CB05DF804EB03B070474481FF1F2DE9F0478E6882469E420C46914698463ED88A8912F4906F3AD02568096902236F1A656905EB4505A8
:4047400095FBF3F57B1C43449D4238BF1D4653050FD5294600F040FB064698B13A462169FFF7A2FFA38923F4906343F08003A38113E02A4600F08EFB064670B921695046DD
:4047800000F0DEFA0C23CAF80030A3894FF0FF3043F04003A381BDE8F08726613E44266046466561ED1BA560464528BF464649463246206800F0A8FAA36800209B1BA360CF
:4047C00023681E442660BDE8F08700002DE9F04F9DB003938B8980461C060D4616460DD50B695BB9402100F0F7FA2860286118B90C23C8F80030CDE040236B6100230993FF
:4048000020238DF82930DFF89CB130238DF82A3037463C4614F8013B1BB9B7EB060910D003E0252BF9D02746F3E74B46324629464046FFF771FF013000F0A780099B4B4433
:4048400009933B78002B00F0A08000234FF0FF3204930793059206938DF853301A930126052221784E4800F041FA671C049B38B14B4A3C46801A06FA00F018430490EFE7EC
:40488000D90644BF20228DF853201A0744BF2B228DF8532022782A2A03D0079A00210A200BE0039A111D12680391002A10DA524243F00200079204900BE027463B780134B8
:4048C000303B092B03D800FB02320121F5E701B107923B782E2B1ED17B782A2B0AD1039B02371A1D1B680392002BB8BF4FF0FF33059310E0002319460593781C0A240746BE
:404900003A780130303A092A03D804FB01210123F5E703B1059103223978224800F0E6F940B14023CBEB000003FA00F0049B013718430490397806221B487E1C8DF8281052
:4049400000F0D4F988B1194B33B9039B073323F007030833039314E003AB00932A46144B04A94046AFF3008007E003AB00932A460F4B04A9404600F093F8B0F1FF3F82468B
:4049800003D0099B5344099342E7AB895B0601D4099801E04FF0FF301DB0BDE8F08F00BF4ED9010054D9010058D9010000000000194700002DE9F04791461F460A698B6843
:4049C00006469342B8BF1346C9F8003091F843200C46DDF8208012B10133C9F800302368990642BFD9F800300233C9F80030256815F0060510D104F1190A07E001235246AF
:404A000039463046C04701301AD00135E368D9F800209B1A9D42F1DB94F843302268003318BF012392060FD5E118302081F843005A1C94F845102244023382F8431003E0B3
:404A40004FF0FF30BDE8F08704F1430239463046C0470130F4D02268D9F80050E36802F00602042A08BF5D1B2269A3680CBF25EAE57500259342C4BF9B1AED184FF00009DB
:404A80001A344D4509D00123224639463046C0470130D5D009F10109F3E70020BDE8F0872DE9F04317460A7E85B06E2A984606460C460C9B01F1430E00F0AE8011D8632AD0
:404AC00022D009D8002A00F0BB80582A40F0CA8081F84520834955E0642A1ED0692A1CD0C0E0732A00F0B08009D86F2A2ED0702A40F0B8800A6842F020020A603EE0752AF4
:404B000024D0782A3AD0ADE01A6801F14205111D1960136884F84230A8E021681A6811F0800F02D0111D196008E011F0400F02F10401196002D0B2F9003000E01368002B05
:404B40003CDA2D225B4284F8432037E021681A6811F0800F02D0111D196007E011F0400F02F10401196001D0138800E01368227E5C496F2A14BF0A2208221BE078225A497B
:404B800084F845202268186812F0800F00F104051D6003D1550601D5038800E00368D00744BF42F0200222601BB9226822F0200222601022002084F8430001E049490A22B3
:404BC0006568002DA56008DB206820F0040020602BB9002D7DD175460CE0002B79D07546B3FBF2F002FB1033CB5C05F8013D03460028F5D1082A0BD12368DA0708D5236936
:404C000062689A42DEBF302305F8013C05F1FF35C5EB0E0323612EE008681A6810F0800F496903D0101D1860136808E010F0400F02F104001860136801D0198000E019601D
:404C400000232361754616E01A68111D1960156800216268284600F049F808B1401B6060636804E004F1420584F8422001232361002384F84330CDF800803B4603AA21467B
:404C80003046FFF797FE013002D14FF0FF3026E023692A4639463046C0470130F5D023689B0710D5002504F1190907E001234A4639463046C0470130E7D00135E368039AA2
:404CC0009B1A9D42F2DBE068039B9842B8BF184605E00B7804F1420584F842308AE705B0BDE8F0835FD9010070D9010010B5C9B202449042034605D01C7801308C42F8D199
:404D0000184610BD002010BD884210B501EB020301D8421E0BE09842FBD28118D21AD34204D013F8014D01F8014DF8E710BD994204D011F8014B02F8014FF8E710BD00005C
:404D400038B50546002944D051F8043C0C1F002BB8BFE41800F0D4F81E4A1368114613B96360146030E0A3420DD92268A018834201BF18685B681218226063600C6023E0B0
:404D8000A24203D813465A68002AF9D118681918A1420BD12168014458188242196013D110685268014419605A600DE002D90C232B6009E021686018824201BF106852688A
:404DC0000918216062605C602846BDE8384000F098B838BD8081FF1F70B5CD1C25F0030508350C2D38BF0C25002D064601DBA94202D90C23336046E000F082F8234B1C688C
:404E00001A462146A1B10B685B1B0ED40B2B03D90B60CC18CD501EE08C420BBF63684B681360636018BF0C4615E00C464968E9E7174C23681BB9304600F052F82060294674
:404E4000304600F04DF8431C18D0C41C24F00304A0420DD12560304600F053F804F10B00231D20F00700C31A0ED05A42E25070BD211A304600F034F80130EBD10C233360C6
:404E8000304600F03EF8002070BD00BF8081FF1F7C81FF1FF8B5074615460E4621B91146BDE8F840FFF798BF1AB9FFF749FF2846F8BD00F027F885420ED929463846FFF738
:404EC0008BFF044650B131462A46FFF7EDFB31463846FFF735FF01E03046F8BD2046F8BD38B5064C0023054608462360FFF7A2F9431C02D1236803B12B6038BD1884FF1F18
:404F00007047704751F8040C0028BEBF091851F8043CC0180438704700000000416E64726573204E6176617300000000843D0100C200660000020000427574746F6E204250
:404F4000200A507265737365642100004C6F672E74787400427574746F6E204220707265737365642025642074696D65732073696E63652072657365740D0A00496D616777
:404F800065200A50726573736564210054686520696D616765207761732050726573736564210D0A00000000546869732069732061200A20746573742073616D706C6520AD
:404FC00077696E646F7721004E616D652E74787400000000544654203522202020282564782564290000000050536F4320354C502028435938434B49542D303530290000D1
:40500000546573742057696E646F77202D20E64755492076302E33312020200200000000427574746F6E200A41000000427574746F6E200A42000000427574746F6E200AD1
:405040004300000043353635612E64617400000058203D202564207C202564202000000059203D202564207C20256420200000005A203D2025642020200000002C632C639D
:405080002C632C63139D139D139D139D7DEF7DEF7DEF7DEF2C632C632C632C63FFFFFFFF4D6B4D6B1CE71CE7139D139D2C632C632C632C63139D139D139D139D7DEF7DEF80
:4050C0007DEF7DEF2C632C632C632C63FFFFFFFF4D6B4D6B1CE71CE7139D139D2C632C632C632C63FFFFFFFF4D6B4D6B1CE71CE7139D139D805100000000160024000000B1
:40510000FF0000000000000080BD0000000010001A000000FF0000000000000080F1000000000C0010000000FF0000000000000080110100000008000E000000FF000000D7
:4051400000000000801F0100000008000C000000FF00000000000000802B0100000006000A000000FF00000000000000803501000000050008000000FF00000000000000FF
:4051800000000000000000000000000000000000000000000000000000000000000000000000000000000000000000000000000000000000000000000000000000000000EF
:4051C00000000000000000000000000000000000000000000000000000000000000000000000000000000000000000000000000000000000000000000000000000000000AF
:4052000000000000000000003F00C0FF00F0C0033800071C000ECCE10CCEE11CC6E118060018060018260019668019CEC01C8C7F0C1C3F0E380007F0C003C0FF00003F007D
:40524000000000000000000000000000000000000000000000000000000000000000000000000000000000000000000000000000000000003F00C0FF00F0FF03F8FF07FC44
:40528000FF0F3C1E0F3E1E1F3E1E1FFEFF1FFEFF1FDEFF1E9E7F1E9E7F1F3C1E0F7C800FF8E107F0FF03C0FF00003F00000000000000000000000000000000000000000093
:4052C00000000000000000000000F8C007FCE10FFEF31FFEFF1FFFFF3FFFFF3FFFFF3FFFFF3FFFFF3FFFFF3FFFFF3FFEFF1FFEFF1FFEFF1FFCFF0FFCFF0FF8FF07F8FF07C8
:40530000F0FF03E0FF01E0FF01C0FF00807F00003F00001E00000C00000000000000000000000000000000000000000000000000000000000000000400000C00000E000076
:405340001F00803F00807F00C0FF00E0FF00F0FF01F8FF07FCFF0FFEFF1FFFFF3FFEFF1FFCFF0FF8FF07F0FF03E0FF01E0FF00C07F00803F00003F00001F00000E00000C16
:4053800000000400000000000000000000000000000000000000000000000000000000000000001E00807F00807F00C0FF00C0FF00C0FF00C0FF00807F00807F0078BF0795
:4053C000FEFF1FFEFF1FFFFF3FFFFF3FFFFF3FFFFF3FFEF51FFEEE0F78CE07000E00000E00000E00000E00001F00001F00001F000000000000000000000000000000000092
:405400000000000000000000000000000000000400000C00000E00001F00803F00807F00C0FF00E0FF01F0FF03F8FF07FCFF0FFEFF1FFEFF1FFFFF3FFFFF3FFFFF3FFFFFEB
:405440003FFEF51FFEEE1F788E07000E00000E00000E00001F00001F00001F000000000000000000000000000000000000000000000000000000000000000000000000003C
:4054800000000000000000000000000000000000000000000000000000000000000000000000000000000000000000000000000000000000000000000000000000000000EC
:4054C00000000000000000000000000000000000000000000000000000000000000000000000000000000000000000000000000000000000000000000000000000000000AC
:40550000000000000000000000000000000000000000000000000000000000000000000000000000000000000000000000000000000000000000000000000000000000006B
:40554000000000000000000000000000000000000000000000000000000000000000000000000000000000000000000000000000000000000000000000000000000000002B
:4055800000000000000000000000000000000000000000000000000000000000000000000000000000000000000000000000000000000000000000000000000000000000EB
:4055C00000000000000000000000000000000000000000000000000000000000000000000000000000000000000000000000000000000000000000000000000000000000AB
:4056000000000000000000000000000000000000000000000000000000000000000000000000000000000000000000000C00C00F00FC0F00F80F00981F00801F00C019004E
:40564000E03900E038C07F08F07F00F87F003CF0001EE0010EC0010780030780030780030780030780030EC0011EE0013CF000F87F00F03F00C00F000000000000000000B1
:4056800000000000000000000000000000000000000000000000003F00C0FF00E0FF01F0C0037880073800071C000E1C000E1C000E1C000E1C000E38000F788007F0C1034F
:4056C000E0FF03C0FF01007F00001C00001C00C0FF01C0FF01C0FF01001C00001C00001C00001C0000000000000000000000000000000000000000000000000000000000A1
:405700000000000000000000000000000000000000000000000000000000000000000000000000000000000000000000000000000000000000000000000000000000000069
:405740000000000000000000000000000000000000000000000000000000000000000000000000000000000000000000000000000800000E00C00F00F00F00FC0F00FF0C2F
:40578000803F0C800F0C80030C80010C80010C80010C80010C80010C80010C80010C80010C80010C80010C80C10F80F10F80F90780F90780F90380F100F80100FE0100FFBE
:4057C0000000FF00007F00001E0000000000000000000000000000000000000000000000000000000000001C00001C00101C02783F07F0FF03E0FF01E0E101F0C0037E80A4
:405800001F7E801F7E801F708003F0C003E0E101E0FF03F0FF03383F07101C02001C00001C00000000000000000000000000000000000000000000000000000000000000EF
:405840000000000000000000000000000000000000000000000200000E00003E0000FE0000FE0300FE0700FE1F00FE7F00FEFF01FEFF07FEFF1FFEFF07FEFF01FE7F00FEA1
:405880001F00FE0700FE0300FE00003E00000E0000020000000000000000000000000000000000000000000000000000000000000000000000000000000000000000000077
:4058C0000000001000001C00001F00C01F00F01F00F81F00FE1F80FF1FE0FF1FF8FF1FFEFF1FF8FF1FE0FF1F80FF1F00FE1F00F81F00F01F00C01F00001F00001C0000104E
:40590000000000000000000000000000000000000000000000000000000000000000000800001C00003E00007F0080FF00C0DD01401C01001C00001C00001C00001C00009C
:405940001C00001C00001C00001C00001C00001C00001C00001C00001C00001C00001C00001C00001C00401C01C0DD0180FF00007F00003E00001C00000800000000000060
:4059800000000000000000000000E0E000E0E000E0E000E0E000E0E000E0E000E0E000E0E000E0E000E0E000E0E000E0E000E0E000E0E000E0E000E0E000E0E000E0E00067
:4059C000E0E000000000000000000000E0E000E0E000E0E000E0E000000000000000000000000000000000000000000000000000000000000000E0FF03F8FF03F80703FC0D
:405A00000703FC0703FC0703FC0703FC0703FC0703F80703F00703E00703800703000603000603000603000603000603000603000603000603000603000603000603000665
:405A40000300060300060300060300060300060300060300000000000000000000000000000000FF00C0FF01E0FF01E08101700000700000700000F00000E00300E00F00DA
:405A8000C03F00C07F00E0F80170E00170C003708003F08003F08103E08301C0DF0180FF0000FE0000F80100E00100C003008003008003108003F0E001F0FF01F0FF00808A
:405AC0003F00000000000000000000000000000000000000000000000000000000000000000000000000000000FEFF1FFEFF1FFEFF1FFEFF1FFEFF1FFEFF1F0000000000BF
:405B000000000000000000000000000000000000000000000000000000000000000000000000000000000000000000000000000000000000000800001C00001C00007F00A6
:405B400080FF00C0DD01401C01001C00001C00001C00001C00001C00001C00001C00001C00001C00001C00001C00001C00001C00001C00001C00001C00401C01C0DD018070
:405B8000FF00007F00003E00001C00000800000000000000C0FF01C0FF01C0FF01000000000000000000000800001C00003E00007F0080FF00C0DD01401C01001C00001C32
:405BC00000001C00001C00001C00001C00001C00001C00001C00001C00001C00001C00001C00001C00001C00001C00001C00001C00001C00001C00001C00001C00001C0059
:405C0000001C00000000000000000000000000000000001C00001C00001C00001C00001C00001C00001C00001C00001C00001C00001C00001C00001C00001C00001C0000A4
:405C40001C00001C00001C00001C00001C00001C00001C00001C00001C00401C01C0DD0180FF00007F00003E00001C000008000000000000000000000000000000000000CD
:405C80000000000000000000000000000000000000000000000000000000000000600000C00000C001008003FCFF07FCFF0FFCFF0700800300C00100C0000060000000000E
:405CC00000000000000000000000000000000000000000000000000000000000000000000000000000000000000000000000000000000000000000000000000000000000A4
:405D00000000000000000000800100C00000E00000700000F8FF0FFCFF0FF8FF0F700000E00000C0000080010000000000000000000000000000000000000000000000002B
:405D4000000000000000000000000000000000000000000000000000000000000000000000000000000000000000001C00001C00001C00001C00001C00001C00001C00005F
:405D80001C00001C00001C00001C00001C00001C00001C00001C00001C0000FCFF0FFCFF0FFCFF0F00000000000000000000000000000000000000000000000000000000C9
:405DC0000000000000000000000000000000000000000000000000000000000000000000806100C0C000E0C001708003F8FF07FCFF0FF8FF07708003E0C001C0C0008061B3
:405E0000000000000000000000000000000000000000000000000000000000000000000000000000000000000000000000000000000000000000000000000000000004005E
:405E4000000400000E00000E00001F00001F00003F00803F00807F00C07F00C0FF00E0FF00E0FF01F0FF01F0FF03F8FF03F8FF07F8FF07FCFF0FFCFF0FFEFF1F0000000002
:405E80000000000000000000000000000000000000000000000000000000000000000000000000000000000000FEFF1FFCFF0FFCFF0FF8FF07F8FF07F8FF03F0FF03F0FFDB
:405EC00001E0FF01E0FF00C0FF00C07F00807F00803F00003F00001F00001F00000E00000E0000040000040000000000000000000000000000000000000000000000000085
:405F00000000000000000000000000000000000000000000000000000000000000000000000000000000000000000000000000000000000000000000000000000000000061
:405F40000000000000000000000000000000000000000000000000000000000000000000000000000000000000000000000000000000000E00000E00000E00000E00000EDB
:405F800000000E00000E00000E00000E00000E00000E00000E00000E00000E00000E00000E00000E00000E00000E00000000000000000000000E00000E00000E00000E00E5
:405FC000000000000000000000000000000000000000000000000000F0E001F0E001F0E001F0E001F0E001F0E00160C00060C00060C00060C000000000000000000000003B
:406000000000000000000000000000000000000000000000000000000000000000000000000000000000000000000000000000000000000000000000000000000000000060
:4060400000000000000000000000000E07000E0700870300870300870300870380C301FCFF1FFCFF1FFCFF1FC0E100C0E100C0E100C0E100C0E100FEFF07FEFF07FEFF070B
:40608000E07000703800703800703800703800703800381C00381C00000000000000000000000000000000000000000000000000000C00000C00007F00C0FF01E0FF01E089
:4060C0008D01F00C00700C00700C00700C00F00C00E00D00C00F00800F00001F00007E0000FC0000FC0100CC0100CC03008C03008C03008C0308CC0338EC01F8FF01F8FF91
:4061000000C03F00000C00000C00000000000000000000000000000000000000000000000000F80038FC011C8E030E07070707070707870307C70107C70107E7008E730018
:40614000FC3900F83800001C00000E0000C70700E70F80731CC03938E03838E038387038383838383838381C701C0EE00F07C0070000000000000000000000000000000049
:406180000000000000000000000000000000001F00807F00C07F00E0F100E0E000E0E000E0E000E07000C07900C03F00C00F00E00700F807383C07381E0E380E1E38073C76
:4061C00018073C1C07781C07F00E0FE00F1EE0077EC007FCFF0FF8FF0FC01F1E000000000000000000000000000000000000000000000000000F00000F00000F00000F00F7
:40620000000F00000F000006000006000006000006000000000000000000000000000000000000000000000000000000000000000000000000000000000000000000000028
:40624000000000000000000000000000000000000000000000000000000000000000000000000600C00700F001007800003C00001E00000E0000070000070080030080036C
:4062800000800300C00100C00100C00100C00100C00100C00100C00100C00100C00100800300800300800300000700000700000E00001E00003C0000780000F00100C00763
:4062C000000006000000000000000000380000F80000E00300800700000F00001E00001C0000380000380000700000700000700000E00000E00000E00000E00000E0000095
:40630000E00000E00000E00000E000007000007000007000003800003800001C00001E00000F00800700E00300F80000180000000000000000000000000000000000000E4C
:4063400000000E00000E00000E00300E03F8C407F8E107E0E101000000003300807F00C0F300E0E101E0C00180400000000000000000000000000000000000000000000045
:4063800000000000000000000000000000000000000000000000000000000000000000000000000000000000000000000000000000000000000000000000000000000000DD
:4063C0001C00001C00001C00001C00001C00001C00001C00001C00FCFF1FFCFF1FFCFF1F001C00001C00001C00001C00001C00001C00001C00001C0000000000000000008F
:40640000000000000000000000000000000000000000000000000000000000000000000000000000000000000000000000000000000000000000000000000000000000005C
:40644000000000000000000000000000000000000000000000001F00001F00001F00001F00001F00001C00001C00000C00000E000007000003000000000000000000000025
:406480000000000000000000000000000000000000000000000000000000000000000000000000000000000000F0FF03F0FF03F0FF03000000000000000000000000000006
:4064C000000000000000000000000000000000000000000000000000000000000000000000000000000000000000000000000000000000000000000000000000000000009C
:40650000000000000000000000000000000000000000000000000000000000000000000000000000000000000000000000001F00001F00001F00001F00001F0000000000C0
:40654000000000000000000000000000000000000000000000001C00000E00000E00000700000700800300800300C00100C00100E00000E00000700000700000380000383D
:4065800000001C00001E00000E00000700000700800300800300C00100C00100E00000E000007000007000003800003800001C00001C00000E0000000000000000000000A7
:4065C000000000000000001F00C07F00E0FF00F0E00170C0013880033880033880031C00071C00071C00071C00071C00071C00071C00071C00071C00071C000738800338DA
:40660000800338800370C001F0E001E0FF00C07F00001F00000000000000000000000000000000000000000000000000000000000000001800001F00E01F00F81F00781CFC
:4066400000001C00001C00001C00001C00001C00001C00001C00001C00001C00001C00001C00001C00001C00001C00001C00001C00001C00001C00F8FF0FF8FF0FF8FF0F10
:40668000000000000000000000000000000000000000000000000000000000000000801F00F07F00F0FF0070F00010E00100C00100C00100C00100C00100C00100E00000E7
:4066C000F000007000003800001C00000E00000700800300C00100E00000E00000700000780000F8FF01F8FF01F8FF010000000000000000000000000000000000000000FD
:4067000000000000000000000000C01F00F07F00F0FF0030F00100C00100C00100C00100C00100E000007800C03F00C03F00C07F0000F80000E00100C003008003008003C0
:4067400000800300800300C00300C00130F001F0FF00F07F00E01F0000000000000000000000000000000000000000000000000000000000000000E00000F00000F8000049
:40678000F80000FC0000EE0000EE0000E70080E30080E300C0E100E0E00070E00070E00038E0001CE000FCFF07FCFF07FCFF0700E00000E00000E00000E00000E00000E001
:4067C0000000E000000000000000000000000000000000000000000000000000000000000000E0FF00E0FF00E0FF00E00000E00000E00000E00000E00000E00000E00000FC
:40680000E00F00E03F00E07F0000F80000F00000E00100C00100C00100C00100C00100E00100E00060F000E07F00E03F00C00F0000000000000000000000000000000000C0
:40684000000000000000000000000000000000FC0000FF0380FF03C00303E00100E00000700000700000700000380000383E0038FF00B8FF01F8E1037880037880077800D6
:4068800007380007380007700007700007F08003E0C103C0FF0180FF00003F00000000000000000000000000000000000000000000000000000000000000F0FF0FF0FF0FD4
:4068C000F0FF0F00000700000700800300800300C00100E00000E000007000007000003800003C00001C00001E00000E00000F00000700800700800300C00300C00300E0E3
:406900000100E00100E00100000000000000000000000000000000000000000000000000000000000000007F00C0FF00E0FF01E0E003708003708003708003F08003E0C0C7
:4069400001E0E300C07700803F00807F00E0FD00E0F00170E003388007388007380007380007380007788007F0C103E0FF01C0FF00003F0000000000000000000000000091
:40698000000000000000000000000000000000000000003F00C07F00E0FF00F0E00170C00338800338800338000738000738800778800770C007F0E107E07F07C03F0780C9
:4069C0001F0700000700800300800300800300C00100E00130F000F07F00F03F00C00F000000000000000000000000000000000000000000000000000000000000000000B2
:406A000000000000000000000000000000000000000000001F00001F00001F00001F00001F00000000000000000000000000000000000000000000000000000000001F009C
:406A4000001F00001F00001F00001F00000000000000000000000000000000000000000000000000000000000000000000000000000000000000000000000000000000009A
:406A80001F00001F00001F00001F00001F00000000000000000000000000000000000000000000000000000000001F00001F00001F00001F00001F00001C00001C00000C5C
:406AC00000000E0000070000030000000000000000000000000000000000000000000000000000000000000000000000000800000E00800F00E00700F801007C00001F005E
:406B0000C00700F00300FC0000F00100C00700001F00007C0000F80100E00700800F00000E00000800000000000000000000000000000000000000000000000000000000C7
:406B40000000000000000000000000000000000000000000000000000000000000000000000000FCFF0FFCFF0FFCFF0F000000000000000000000000FCFF0FFCFF0FFCFFE8
:406B80000F000000000000000000000000000000000000000000000000000000000000000000000000000000000000000000000000000000000000000000000000000000C6
:406BC0000000000400001C00007C0000F80100E00700800F00003E0000F80000F00300C00F00E00300F800003E00800F00E00700F801007C00001C0000040000000000006E
:406C00000000000000000000000000000000000000000000000000000000E03F00F8FF01F8FF0338C00738800738000700000700000700800300C00100E00000700000386C
:406C400000001C00000E00000600000700000700000700000000000000000000000700000700000700000700000000000000000000000000000000000000000000000000B3
:406C800000000000000000FE0080FF03C08307E0000770000E38F00F38F80F1C1C0E1C0E0E1E0E0E0E060E0E070E0E070F0E070F0E870F0E870F0EC70E0EEF0E1C7E0E1CF0
:406CC0007E3E383C3E380000700000E08101C0FF01007F00000000000000000000000000000000000000000000000000000000000000000000000000000000001E00001FA0
:406D000000003F00003F00803B00807B00C07100C0F100C0E100E0E000E0E00170C00170C003708003F8FF03F8FF07F8FF071C000F1C000E1E001E0E001C0E001C070038AA
:406D4000000000000000000000000000000000000000000000000000000000000000000000000000000000F83F00F8FF00F8FF0138E00338800338800338800338C0013870
:406D8000F001F87F00F81F00F8FF0038F00138C00338800738000738000738000738000738C003F8FF03F8FF01F87F0000000000000000000000000000000000000000001A
:406DC0000000000000000000000000000000000000000000FC0700FF1FC0FF1FE0071CF001007000007800003800001C00001C00001C00001C00001C00001C00003C00009C
:406E0000380000780000F80000F00100E0071CC0FF1F00FF1F00FC03000000000000000000000000000000000000000000000000000000000000000000000000000000FCBF
:406E40000F00FC7F00FCFF001CF0011CC0031C80031C80031C80071C00071C00071C00071C00071C00071C00071C00071C80031C80031CC0031CE0011CF801FCFF00FC3F66
:406E800000FC0F00000000000000000000000000000000000000000000000000000000000000000000000000000000F0FF07F0FF07F0FF0770000070000070000070000025
:406EC000700000700000700000F0FF01F0FF01F0FF01700000700000700000700000700000700000700000F0FF0FF0FF0FF0FF0F0000000000000000000000000000000068
:406F00000000000000000000000000000000000000000000000000F0FF0FF0FF0FF0FF0F700000700000700000700000700000700000700000F0FF03F0FF03F0FF03700001
:406F40000070000070000070000070000070000070000070000070000070000000000000000000000000000000000000000000000000000000000000000000000000000021
:406F800000000000FE0380FF0FE0FF0FF0030EF800003800003C00001C00000E00000E00000E00000EF00F0EF00F0EF00F1E000E1C000E3C000E7C000EF8000EF0070EE065
:406FC000FF0F80FF0F00FE03000000000000000000000000000000000000000000000000000000000000000000000000000000380007380007380007380007380007380081
:4070000007380007380007380007380007F8FF07F8FF07F8FF07380007380007380007380007380007380007380007380007380007380007000000000000000000000000DD
:40704000000000000000000000000000000000000000000000000000000000F8FF03F8FF03F8FF03000E00000E00000E00000E00000E00000E00000E00000E00000E0000A4
:407080000E00000E00000E00000E00000E00000E00000E00000E00F8FF03F8FF03F8FF03000000000000000000000000000000000000000000000000000000000000000072
:4070C00000000000000000E0FF00E0FF00E0FF0000E00000E00000E00000E00000E00000E00000E00000E00000E00000E00000E00000E00000E00000E00000E00000700063
:40710000087800F83F00F81F00F0070000000000000000000000000000000000000000000000000000000000000000000000000000000038800738C00338E00138F0003857
:407140007800383800383C00381E00380F00B80700B80300F80700B80700380F00381E00383C0038780038F00038E00138C00338800738000F38001F000000000000000084
:4071800000000000000000000000000000000000000000000000000000000000000000700000700000700000700000700000700000700000700000700000700000700000FF
:4071C000700000700000700000700000700000700000700000700000700000F0FF0FF0FF0FF0FF0F00000000000000000000000000000000000000000000000000000000A5
:4072000000000000000000000000007C001F7C001FFC001FFC801FFC801FDC811DDCC11DDCC11D9CC31C9CE31C9C631C1C671C1C771C1C371C1C3E1C1C3E1C1C1C1C1C1C73
